{
  "_format": "hh-sol-artifact-1",
  "contractName": "BlockBadge",
  "sourceName": "contracts/BlockBadge.sol",
  "abi": [
    {
      "anonymous": false,
      "inputs": [
        {
          "indexed": true,
          "internalType": "uint256",
          "name": "eventId",
          "type": "uint256"
        },
        {
          "indexed": false,
          "internalType": "address",
          "name": "participant",
          "type": "address"
        },
        {
          "indexed": false,
          "internalType": "string",
          "name": "tier",
          "type": "string"
        },
        {
          "indexed": false,
          "internalType": "string",
          "name": "cid",
          "type": "string"
        }
      ],
      "name": "BadgeClaimed",
      "type": "event"
    },
    {
      "anonymous": false,
      "inputs": [
        {
          "indexed": true,
          "internalType": "uint256",
          "name": "eventId",
          "type": "uint256"
        },
        {
          "indexed": false,
          "internalType": "uint256",
          "name": "checkpointId",
          "type": "uint256"
        },
        {
          "indexed": false,
          "internalType": "address",
          "name": "participant",
          "type": "address"
        },
        {
          "indexed": false,
          "internalType": "uint256",
          "name": "newBalance",
          "type": "uint256"
        }
      ],
      "name": "CheckedIn",
      "type": "event"
    },
    {
      "anonymous": false,
      "inputs": [
        {
          "indexed": true,
          "internalType": "uint256",
          "name": "eventId",
          "type": "uint256"
        },
        {
          "indexed": false,
          "internalType": "uint256",
          "name": "checkpointId",
          "type": "uint256"
        }
      ],
      "name": "CheckpointCreated",
      "type": "event"
    },
    {
      "anonymous": false,
      "inputs": [
        {
          "indexed": true,
          "internalType": "uint256",
          "name": "eventId",
          "type": "uint256"
        },
        {
          "indexed": false,
          "internalType": "string",
          "name": "eventName",
          "type": "string"
        },
        {
          "indexed": false,
          "internalType": "address",
          "name": "organizer",
          "type": "address"
        }
      ],
      "name": "EventCreated",
      "type": "event"
    },
    {
      "anonymous": false,
      "inputs": [
        {
          "indexed": true,
          "internalType": "uint256",
          "name": "eventId",
          "type": "uint256"
        }
      ],
      "name": "EventEnded",
      "type": "event"
    },
    {
      "inputs": [
        {
          "internalType": "uint256",
          "name": "eventId",
          "type": "uint256"
        },
        {
          "internalType": "uint256",
          "name": "checkpointId",
          "type": "uint256"
        }
      ],
      "name": "checkIn",
      "outputs": [],
      "stateMutability": "nonpayable",
      "type": "function"
    },
    {
      "inputs": [
        {
          "internalType": "uint256",
          "name": "",
          "type": "uint256"
        },
        {
          "internalType": "uint256",
          "name": "",
          "type": "uint256"
        },
        {
          "internalType": "address",
          "name": "",
          "type": "address"
        }
      ],
      "name": "checkedIn",
      "outputs": [
        {
          "internalType": "bool",
          "name": "",
          "type": "bool"
        }
      ],
      "stateMutability": "view",
      "type": "function"
    },
    {
      "inputs": [
        {
          "internalType": "uint256",
          "name": "",
          "type": "uint256"
        },
        {
          "internalType": "uint256",
          "name": "",
          "type": "uint256"
        }
      ],
      "name": "checkpoints",
      "outputs": [
        {
          "internalType": "bool",
          "name": "",
          "type": "bool"
        }
      ],
      "stateMutability": "view",
      "type": "function"
    },
    {
      "inputs": [
        {
          "internalType": "uint256",
          "name": "eventId",
          "type": "uint256"
        },
        {
          "internalType": "string",
          "name": "badgeCID",
          "type": "string"
        }
      ],
      "name": "claimBadge",
      "outputs": [],
      "stateMutability": "nonpayable",
      "type": "function"
    },
    {
      "inputs": [
        {
          "internalType": "string",
          "name": "eventName",
          "type": "string"
        },
        {
          "internalType": "uint256",
          "name": "totalParticipants",
          "type": "uint256"
        },
        {
          "internalType": "uint256",
          "name": "totalCheckpoints",
          "type": "uint256"
        },
        {
          "internalType": "uint256",
          "name": "tokensPerCheckin",
          "type": "uint256"
        },
        {
          "internalType": "uint256",
          "name": "goldThreshold",
          "type": "uint256"
        },
        {
          "internalType": "uint256",
          "name": "silverThreshold",
          "type": "uint256"
        },
        {
          "internalType": "uint256",
          "name": "bronzeThreshold",
          "type": "uint256"
        }
      ],
      "name": "createEvent",
      "outputs": [
        {
          "internalType": "uint256",
          "name": "",
          "type": "uint256"
        }
      ],
      "stateMutability": "nonpayable",
      "type": "function"
    },
    {
      "inputs": [
        {
          "internalType": "uint256",
          "name": "eventId",
          "type": "uint256"
        }
      ],
      "name": "endEvent",
      "outputs": [],
      "stateMutability": "nonpayable",
      "type": "function"
    },
    {
      "inputs": [],
      "name": "eventCount",
      "outputs": [
        {
          "internalType": "uint256",
          "name": "",
          "type": "uint256"
        }
      ],
      "stateMutability": "view",
      "type": "function"
    },
    {
      "inputs": [
        {
          "internalType": "uint256",
          "name": "",
          "type": "uint256"
        }
      ],
      "name": "events",
      "outputs": [
        {
          "internalType": "address",
          "name": "organizer",
          "type": "address"
        },
        {
          "internalType": "uint256",
          "name": "totalParticipants",
          "type": "uint256"
        },
        {
          "internalType": "uint256",
          "name": "totalCheckpoints",
          "type": "uint256"
        },
        {
          "internalType": "uint256",
          "name": "tokensPerCheckin",
          "type": "uint256"
        },
        {
          "internalType": "uint256",
          "name": "goldThreshold",
          "type": "uint256"
        },
        {
          "internalType": "uint256",
          "name": "silverThreshold",
          "type": "uint256"
        },
        {
          "internalType": "uint256",
          "name": "bronzeThreshold",
          "type": "uint256"
        },
        {
          "internalType": "bool",
          "name": "isActive",
          "type": "bool"
        },
        {
          "internalType": "string",
          "name": "eventName",
          "type": "string"
        }
      ],
      "stateMutability": "view",
      "type": "function"
    },
    {
      "inputs": [
        {
          "internalType": "uint256",
          "name": "eventId",
          "type": "uint256"
        }
      ],
      "name": "getEvent",
      "outputs": [
        {
          "internalType": "address",
          "name": "organizer",
          "type": "address"
        },
        {
          "internalType": "string",
          "name": "eventName",
          "type": "string"
        },
        {
          "internalType": "uint256",
          "name": "totalParticipants",
          "type": "uint256"
        },
        {
          "internalType": "uint256",
          "name": "totalCheckpoints",
          "type": "uint256"
        },
        {
          "internalType": "uint256",
          "name": "tokensPerCheckin",
          "type": "uint256"
        },
        {
          "internalType": "uint256",
          "name": "goldThreshold",
          "type": "uint256"
        },
        {
          "internalType": "uint256",
          "name": "silverThreshold",
          "type": "uint256"
        },
        {
          "internalType": "uint256",
          "name": "bronzeThreshold",
          "type": "uint256"
        },
        {
          "internalType": "bool",
          "name": "isActive",
          "type": "bool"
        }
      ],
      "stateMutability": "view",
      "type": "function"
    },
    {
      "inputs": [
        {
          "internalType": "uint256",
          "name": "eventId",
          "type": "uint256"
        },
        {
          "internalType": "address",
          "name": "participant",
          "type": "address"
        }
      ],
      "name": "getParticipant",
      "outputs": [
        {
          "internalType": "uint256",
          "name": "tokenBalance",
          "type": "uint256"
        },
        {
          "internalType": "uint256",
          "name": "checkinCount",
          "type": "uint256"
        },
        {
          "internalType": "bool",
          "name": "hasClaimedBadge",
          "type": "bool"
        },
        {
          "internalType": "string",
          "name": "badgeTier",
          "type": "string"
        },
        {
          "internalType": "string",
          "name": "badgeCID",
          "type": "string"
        }
      ],
      "stateMutability": "view",
      "type": "function"
    },
    {
      "inputs": [
        {
          "internalType": "uint256",
          "name": "eventId",
          "type": "uint256"
        }
      ],
      "name": "getParticipants",
      "outputs": [
        {
          "internalType": "address[]",
          "name": "",
          "type": "address[]"
        }
      ],
      "stateMutability": "view",
      "type": "function"
    },
    {
      "inputs": [
        {
          "internalType": "uint256",
          "name": "eventId",
          "type": "uint256"
        },
        {
          "internalType": "uint256",
          "name": "checkpointId",
          "type": "uint256"
        },
        {
          "internalType": "address",
          "name": "participant",
          "type": "address"
        }
      ],
      "name": "hasCheckedIn",
      "outputs": [
        {
          "internalType": "bool",
          "name": "",
          "type": "bool"
        }
      ],
      "stateMutability": "view",
      "type": "function"
    },
    {
      "inputs": [
        {
          "internalType": "uint256",
          "name": "",
          "type": "uint256"
        },
        {
          "internalType": "uint256",
          "name": "",
          "type": "uint256"
        }
      ],
      "name": "participantList",
      "outputs": [
        {
          "internalType": "address",
          "name": "",
          "type": "address"
        }
      ],
      "stateMutability": "view",
      "type": "function"
    },
    {
      "inputs": [
        {
          "internalType": "uint256",
          "name": "",
          "type": "uint256"
        },
        {
          "internalType": "address",
          "name": "",
          "type": "address"
        }
      ],
      "name": "participants",
      "outputs": [
        {
          "internalType": "uint256",
          "name": "tokenBalance",
          "type": "uint256"
        },
        {
          "internalType": "uint256",
          "name": "checkinCount",
          "type": "uint256"
        },
        {
          "internalType": "bool",
          "name": "hasClaimedBadge",
          "type": "bool"
        },
        {
          "internalType": "string",
          "name": "badgeTier",
          "type": "string"
        },
        {
          "internalType": "string",
          "name": "badgeCID",
          "type": "string"
        }
      ],
      "stateMutability": "view",
      "type": "function"
    }
  ],
  "bytecode": "0x6080604052348015600f57600080fd5b506129f58061001f6000396000f3fe608060405234801561001057600080fd5b50600436106100ea5760003560e01c806349dcc2041161008c578063c1e3bd3e11610066578063c1e3bd3e146102ad578063d28537ee146102dd578063f516f88e1461030d578063fb587b1614610329576100ea565b806349dcc204146102275780636d1884e01461025757806371be2e4a1461028f576100ea565b80632ce73681116100c85780632ce73681146101775780632d81d980146101a7578063330a347b146101d757806335f3ad7a146101f3576100ea565b806302e060c6146100ef5780630b791430146101235780631bdeb20d1461015b575b600080fd5b610109600480360381019061010491906119a2565b610359565b60405161011a959493929190611a9c565b60405180910390f35b61013d60048036038101906101389190611afd565b6104b9565b60405161015299989796959493929190611b39565b60405180910390f35b61017560048036038101906101709190611d02565b6105bc565b005b610191600480360381019061018c9190611d5e565b610b03565b60405161019e9190611e1c565b60405180910390f35b6101c160048036038101906101bc9190611e37565b610e28565b6040516101ce9190611e8a565b60405180910390f35b6101f160048036038101906101ec9190611afd565b610ea2565b005b61020d600480360381019061020891906119a2565b610fa7565b60405161021e959493929190611a9c565b60405180910390f35b610241600480360381019061023c9190611ea5565b61118f565b60405161024e9190611e8a565b60405180910390f35b610271600480360381019061026c9190611afd565b6111be565b60405161028699989796959493929190611ee5565b60405180910390f35b61029761137c565b6040516102a49190611e1c565b60405180910390f35b6102c760048036038101906102c29190611afd565b611382565b6040516102d49190612037565b60405180910390f35b6102f760048036038101906102f29190611ea5565b611423565b6040516103049190612059565b60405180910390f35b61032760048036038101906103229190611ea5565b611471565b005b610343600480360381019061033e9190611e37565b6118be565b6040516103509190611e8a565b60405180910390f35b6003602052816000526040600020602052806000526040600020600091509150508060000154908060010154908060020160009054906101000a900460ff16908060030180546103a8906120a3565b80601f01602080910402602001604051908101604052809291908181526020018280546103d4906120a3565b80156104215780601f106103f657610100808354040283529160200191610421565b820191906000526020600020905b81548152906001019060200180831161040457829003601f168201915b505050505090806004018054610436906120a3565b80601f0160208091040260200160405190810160405280929190818152602001828054610462906120a3565b80156104af5780601f10610484576101008083540402835291602001916104af565b820191906000526020600020905b81548152906001019060200180831161049257829003601f168201915b5050505050905085565b60016020528060005260406000206000915090508060000160009054906101000a900473ffffffffffffffffffffffffffffffffffffffff16908060010154908060020154908060030154908060040154908060050154908060060154908060070160009054906101000a900460ff1690806008018054610539906120a3565b80601f0160208091040260200160405190810160405280929190818152602001828054610565906120a3565b80156105b25780601f10610587576101008083540402835291602001916105b2565b820191906000526020600020905b81548152906001019060200180831161059557829003601f168201915b5050505050905089565b6001600083815260200190815260200160002060070160009054906101000a900460ff1615610620576040517f08c379a000000000000000000000000000000000000000000000000000000000815260040161061790612120565b60405180910390fd5b6003600083815260200190815260200160002060003373ffffffffffffffffffffffffffffffffffffffff1673ffffffffffffffffffffffffffffffffffffffff16815260200190815260200160002060020160009054906101000a900460ff16156106c1576040517f08c379a00000000000000000000000000000000000000000000000000000000081526004016106b89061218c565b60405180910390fd5b60006003600084815260200190815260200160002060003373ffffffffffffffffffffffffffffffffffffffff1673ffffffffffffffffffffffffffffffffffffffff168152602001908152602001600020600001549050600060016000858152602001908152602001600020604051806101200160405290816000820160009054906101000a900473ffffffffffffffffffffffffffffffffffffffff1673ffffffffffffffffffffffffffffffffffffffff1673ffffffffffffffffffffffffffffffffffffffff1681526020016001820154815260200160028201548152602001600382015481526020016004820154815260200160058201548152602001600682015481526020016007820160009054906101000a900460ff161515151581526020016008820180546107f7906120a3565b80601f0160208091040260200160405190810160405280929190818152602001828054610823906120a3565b80156108705780601f1061084557610100808354040283529160200191610870565b820191906000526020600020905b81548152906001019060200180831161085357829003601f168201915b50505050508152505090506060816080015183106108c5576040518060400160405280600481526020017f676f6c64000000000000000000000000000000000000000000000000000000008152509050610992565b8160a00151831061090d576040518060400160405280600681526020017f73696c76657200000000000000000000000000000000000000000000000000008152509050610991565b8160c001518310610955576040518060400160405280600681526020017f62726f6e7a6500000000000000000000000000000000000000000000000000008152509050610990565b6040517f08c379a00000000000000000000000000000000000000000000000000000000081526004016109879061221e565b60405180910390fd5b5b5b60016003600087815260200190815260200160002060003373ffffffffffffffffffffffffffffffffffffffff1673ffffffffffffffffffffffffffffffffffffffff16815260200190815260200160002060020160006101000a81548160ff021916908315150217905550806003600087815260200190815260200160002060003373ffffffffffffffffffffffffffffffffffffffff1673ffffffffffffffffffffffffffffffffffffffff1681526020019081526020016000206003019081610a5e91906123ea565b50836003600087815260200190815260200160002060003373ffffffffffffffffffffffffffffffffffffffff1673ffffffffffffffffffffffffffffffffffffffff1681526020019081526020016000206004019081610abf91906123ea565b50847f0943705da2271b1570d0b6082318585b4958d1283dbdf88e11003f7daa9befca338387604051610af4939291906124bc565b60405180910390a25050505050565b6000808711610b47576040517f08c379a0000000000000000000000000000000000000000000000000000000008152600401610b3e9061254d565b60405180910390fd5b60008611610b8a576040517f08c379a0000000000000000000000000000000000000000000000000000000008152600401610b81906125b9565b60405180910390fd5b828411610bcc576040517f08c379a0000000000000000000000000000000000000000000000000000000008152600401610bc390612625565b60405180910390fd5b818311610c0e576040517f08c379a0000000000000000000000000000000000000000000000000000000008152600401610c05906126b7565b60405180910390fd5b6000806000815480929190610c2290612706565b9190505590506040518061012001604052803373ffffffffffffffffffffffffffffffffffffffff1681526020018981526020018881526020018781526020018681526020018581526020018481526020016001151581526020018a8152506001600083815260200190815260200160002060008201518160000160006101000a81548173ffffffffffffffffffffffffffffffffffffffff021916908373ffffffffffffffffffffffffffffffffffffffff1602179055506020820151816001015560408201518160020155606082015181600301556080820151816004015560a0820151816005015560c0820151816006015560e08201518160070160006101000a81548160ff021916908315150217905550610100820151816008019081610d4d91906123ea565b5090505060005b87811015610dde57600160026000848152602001908152602001600020600083815260200190815260200160002060006101000a81548160ff021916908315150217905550817f624ea167e477f9d39f7f4094b9dfe2e6346eb4a7aada54338db51abd554c4b9f82604051610dc99190611e1c565b60405180910390a28080600101915050610d54565b50807f40fb05b814a900c99fa0a76d919dfdeaf3389540e4ca70f97ba40ca9a38f37978a33604051610e1192919061274e565b60405180910390a280915050979650505050505050565b600060046000858152602001908152602001600020600084815260200190815260200160002060008373ffffffffffffffffffffffffffffffffffffffff1673ffffffffffffffffffffffffffffffffffffffff16815260200190815260200160002060009054906101000a900460ff1690509392505050565b806001600082815260200190815260200160002060000160009054906101000a900473ffffffffffffffffffffffffffffffffffffffff1673ffffffffffffffffffffffffffffffffffffffff163373ffffffffffffffffffffffffffffffffffffffff1614610f47576040517f08c379a0000000000000000000000000000000000000000000000000000000008152600401610f3e906127ca565b60405180910390fd5b60006001600084815260200190815260200160002060070160006101000a81548160ff021916908315150217905550817f60ec355296fe18fa9035fd377bd45120aad5d6ca18619a7b72cbd175771eca0a60405160405180910390a25050565b600080600060608060006003600089815260200190815260200160002060008873ffffffffffffffffffffffffffffffffffffffff1673ffffffffffffffffffffffffffffffffffffffff1681526020019081526020016000206040518060a001604052908160008201548152602001600182015481526020016002820160009054906101000a900460ff1615151515815260200160038201805461104b906120a3565b80601f0160208091040260200160405190810160405280929190818152602001828054611077906120a3565b80156110c45780601f10611099576101008083540402835291602001916110c4565b820191906000526020600020905b8154815290600101906020018083116110a757829003601f168201915b505050505081526020016004820180546110dd906120a3565b80601f0160208091040260200160405190810160405280929190818152602001828054611109906120a3565b80156111565780601f1061112b57610100808354040283529160200191611156565b820191906000526020600020905b81548152906001019060200180831161113957829003601f168201915b50505050508152505090508060000151816020015182604001518360600151846080015195509550955095509550509295509295909350565b60026020528160005260406000206020528060005260406000206000915091509054906101000a900460ff1681565b60006060600080600080600080600080600160008c8152602001908152602001600020604051806101200160405290816000820160009054906101000a900473ffffffffffffffffffffffffffffffffffffffff1673ffffffffffffffffffffffffffffffffffffffff1673ffffffffffffffffffffffffffffffffffffffff1681526020016001820154815260200160028201548152602001600382015481526020016004820154815260200160058201548152602001600682015481526020016007820160009054906101000a900460ff161515151581526020016008820180546112aa906120a3565b80601f01602080910402602001604051908101604052809291908181526020018280546112d6906120a3565b80156113235780601f106112f857610100808354040283529160200191611323565b820191906000526020600020905b81548152906001019060200180831161130657829003601f168201915b5050505050815250509050806000015181610100015182602001518360400151846060015185608001518660a001518760c001518860e00151995099509950995099509950995099509950509193959799909294969850565b60005481565b60606005600083815260200190815260200160002080548060200260200160405190810160405280929190818152602001828054801561141757602002820191906000526020600020905b8160009054906101000a900473ffffffffffffffffffffffffffffffffffffffff1673ffffffffffffffffffffffffffffffffffffffff16815260200190600101908083116113cd575b50505050509050919050565b6005602052816000526040600020818154811061143f57600080fd5b906000526020600020016000915091509054906101000a900473ffffffffffffffffffffffffffffffffffffffff1681565b816001600082815260200190815260200160002060070160009054906101000a900460ff166114d5576040517f08c379a00000000000000000000000000000000000000000000000000000000081526004016114cc90612836565b60405180910390fd5b60026000848152602001908152602001600020600083815260200190815260200160002060009054906101000a900460ff16611546576040517f08c379a000000000000000000000000000000000000000000000000000000000815260040161153d906128a2565b60405180910390fd5b60046000848152602001908152602001600020600083815260200190815260200160002060003373ffffffffffffffffffffffffffffffffffffffff1673ffffffffffffffffffffffffffffffffffffffff16815260200190815260200160002060009054906101000a900460ff16156115f5576040517f08c379a00000000000000000000000000000000000000000000000000000000081526004016115ec90612934565b60405180910390fd5b600160046000858152602001908152602001600020600084815260200190815260200160002060003373ffffffffffffffffffffffffffffffffffffffff1673ffffffffffffffffffffffffffffffffffffffff16815260200190815260200160002060006101000a81548160ff02191690831515021790555060006003600085815260200190815260200160002060003373ffffffffffffffffffffffffffffffffffffffff1673ffffffffffffffffffffffffffffffffffffffff168152602001908152602001600020600101540361173f5760056000848152602001908152602001600020339080600181540180825580915050600190039060005260206000200160009091909190916101000a81548173ffffffffffffffffffffffffffffffffffffffff021916908373ffffffffffffffffffffffffffffffffffffffff1602179055505b60016000848152602001908152602001600020600301546003600085815260200190815260200160002060003373ffffffffffffffffffffffffffffffffffffffff1673ffffffffffffffffffffffffffffffffffffffff16815260200190815260200160002060000160008282546117b89190612954565b9250508190555060016003600085815260200190815260200160002060003373ffffffffffffffffffffffffffffffffffffffff1673ffffffffffffffffffffffffffffffffffffffff16815260200190815260200160002060010160008282546118239190612954565b92505081905550827fc1deee55f3ac801682f9f4c4b34c669252bfcb7177feb0c5b4dc2e7e6f291af483336003600088815260200190815260200160002060003373ffffffffffffffffffffffffffffffffffffffff1673ffffffffffffffffffffffffffffffffffffffff168152602001908152602001600020600001546040516118b193929190612988565b60405180910390a2505050565b6004602052826000526040600020602052816000526040600020602052806000526040600020600092509250509054906101000a900460ff1681565b6000604051905090565b600080fd5b600080fd5b6000819050919050565b6119218161190e565b811461192c57600080fd5b50565b60008135905061193e81611918565b92915050565b600073ffffffffffffffffffffffffffffffffffffffff82169050919050565b600061196f82611944565b9050919050565b61197f81611964565b811461198a57600080fd5b50565b60008135905061199c81611976565b92915050565b600080604083850312156119b9576119b8611904565b5b60006119c78582860161192f565b92505060206119d88582860161198d565b9150509250929050565b6119eb8161190e565b82525050565b60008115159050919050565b611a06816119f1565b82525050565b600081519050919050565b600082825260208201905092915050565b60005b83811015611a46578082015181840152602081019050611a2b565b60008484015250505050565b6000601f19601f8301169050919050565b6000611a6e82611a0c565b611a788185611a17565b9350611a88818560208601611a28565b611a9181611a52565b840191505092915050565b600060a082019050611ab160008301886119e2565b611abe60208301876119e2565b611acb60408301866119fd565b8181036060830152611add8185611a63565b90508181036080830152611af18184611a63565b90509695505050505050565b600060208284031215611b1357611b12611904565b5b6000611b218482850161192f565b91505092915050565b611b3381611964565b82525050565b600061012082019050611b4f600083018c611b2a565b611b5c602083018b6119e2565b611b69604083018a6119e2565b611b7660608301896119e2565b611b8360808301886119e2565b611b9060a08301876119e2565b611b9d60c08301866119e2565b611baa60e08301856119fd565b818103610100830152611bbd8184611a63565b90509a9950505050505050505050565b600080fd5b600080fd5b7f4e487b7100000000000000000000000000000000000000000000000000000000600052604160045260246000fd5b611c0f82611a52565b810181811067ffffffffffffffff82111715611c2e57611c2d611bd7565b5b80604052505050565b6000611c416118fa565b9050611c4d8282611c06565b919050565b600067ffffffffffffffff821115611c6d57611c6c611bd7565b5b611c7682611a52565b9050602081019050919050565b82818337600083830152505050565b6000611ca5611ca084611c52565b611c37565b905082815260208101848484011115611cc157611cc0611bd2565b5b611ccc848285611c83565b509392505050565b600082601f830112611ce957611ce8611bcd565b5b8135611cf9848260208601611c92565b91505092915050565b60008060408385031215611d1957611d18611904565b5b6000611d278582860161192f565b925050602083013567ffffffffffffffff811115611d4857611d47611909565b5b611d5485828601611cd4565b9150509250929050565b600080600080600080600060e0888a031215611d7d57611d7c611904565b5b600088013567ffffffffffffffff811115611d9b57611d9a611909565b5b611da78a828b01611cd4565b9750506020611db88a828b0161192f565b9650506040611dc98a828b0161192f565b9550506060611dda8a828b0161192f565b9450506080611deb8a828b0161192f565b93505060a0611dfc8a828b0161192f565b92505060c0611e0d8a828b0161192f565b91505092959891949750929550565b6000602082019050611e3160008301846119e2565b92915050565b600080600060608486031215611e5057611e4f611904565b5b6000611e5e8682870161192f565b9350506020611e6f8682870161192f565b9250506040611e808682870161198d565b9150509250925092565b6000602082019050611e9f60008301846119fd565b92915050565b60008060408385031215611ebc57611ebb611904565b5b6000611eca8582860161192f565b9250506020611edb8582860161192f565b9150509250929050565b600061012082019050611efb600083018c611b2a565b8181036020830152611f0d818b611a63565b9050611f1c604083018a6119e2565b611f2960608301896119e2565b611f3660808301886119e2565b611f4360a08301876119e2565b611f5060c08301866119e2565b611f5d60e08301856119e2565b611f6b6101008301846119fd565b9a9950505050505050505050565b600081519050919050565b600082825260208201905092915050565b6000819050602082019050919050565b611fae81611964565b82525050565b6000611fc08383611fa5565b60208301905092915050565b6000602082019050919050565b6000611fe482611f79565b611fee8185611f84565b9350611ff983611f95565b8060005b8381101561202a5781516120118882611fb4565b975061201c83611fcc565b925050600181019050611ffd565b5085935050505092915050565b600060208201905081810360008301526120518184611fd9565b905092915050565b600060208201905061206e6000830184611b2a565b92915050565b7f4e487b7100000000000000000000000000000000000000000000000000000000600052602260045260246000fd5b600060028204905060018216806120bb57607f821691505b6020821081036120ce576120cd612074565b5b50919050565b7f4576656e74206d75737420626520656e64656420666972737400000000000000600082015250565b600061210a601983611a17565b9150612115826120d4565b602082019050919050565b60006020820190508181036000830152612139816120fd565b9050919050565b7f426164676520616c726561647920636c61696d65640000000000000000000000600082015250565b6000612176601583611a17565b915061218182612140565b602082019050919050565b600060208201905081810360008301526121a581612169565b9050919050565b7f4e6f7420656e6f75676820746f6b656e7320746f20636c61696d20616e79206260008201527f6164676500000000000000000000000000000000000000000000000000000000602082015250565b6000612208602483611a17565b9150612213826121ac565b604082019050919050565b60006020820190508181036000830152612237816121fb565b9050919050565b60008190508160005260206000209050919050565b60006020601f8301049050919050565b600082821b905092915050565b6000600883026122a07fffffffffffffffffffffffffffffffffffffffffffffffffffffffffffffffff82612263565b6122aa8683612263565b95508019841693508086168417925050509392505050565b6000819050919050565b60006122e76122e26122dd8461190e565b6122c2565b61190e565b9050919050565b6000819050919050565b612301836122cc565b61231561230d826122ee565b848454612270565b825550505050565b600090565b61232a61231d565b6123358184846122f8565b505050565b5b818110156123595761234e600082612322565b60018101905061233b565b5050565b601f82111561239e5761236f8161223e565b61237884612253565b81016020851015612387578190505b61239b61239385612253565b83018261233a565b50505b505050565b600082821c905092915050565b60006123c1600019846008026123a3565b1980831691505092915050565b60006123da83836123b0565b9150826002028217905092915050565b6123f382611a0c565b67ffffffffffffffff81111561240c5761240b611bd7565b5b61241682546120a3565b61242182828561235d565b600060209050601f8311600181146124545760008415612442578287015190505b61244c85826123ce565b8655506124b4565b601f1984166124628661223e565b60005b8281101561248a57848901518255600182019150602085019450602081019050612465565b868310156124a757848901516124a3601f8916826123b0565b8355505b6001600288020188555050505b505050505050565b60006060820190506124d16000830186611b2a565b81810360208301526124e38185611a63565b905081810360408301526124f78184611a63565b9050949350505050565b7f4e656564206174206c656173742031207061727469636970616e740000000000600082015250565b6000612537601b83611a17565b915061254282612501565b602082019050919050565b600060208201905081810360008301526125668161252a565b9050919050565b7f4e656564206174206c65617374203120636865636b706f696e74000000000000600082015250565b60006125a3601a83611a17565b91506125ae8261256d565b602082019050919050565b600060208201905081810360008301526125d281612596565b9050919050565b7f476f6c64206d75737420626520686967686572207468616e2073696c76657200600082015250565b600061260f601f83611a17565b915061261a826125d9565b602082019050919050565b6000602082019050818103600083015261263e81612602565b9050919050565b7f53696c766572206d75737420626520686967686572207468616e2062726f6e7a60008201527f6500000000000000000000000000000000000000000000000000000000000000602082015250565b60006126a1602183611a17565b91506126ac82612645565b604082019050919050565b600060208201905081810360008301526126d081612694565b9050919050565b7f4e487b7100000000000000000000000000000000000000000000000000000000600052601160045260246000fd5b60006127118261190e565b91507fffffffffffffffffffffffffffffffffffffffffffffffffffffffffffffffff8203612743576127426126d7565b5b600182019050919050565b600060408201905081810360008301526127688185611a63565b90506127776020830184611b2a565b9392505050565b7f4e6f7420746865206f7267616e697a6572000000000000000000000000000000600082015250565b60006127b4601183611a17565b91506127bf8261277e565b602082019050919050565b600060208201905081810360008301526127e3816127a7565b9050919050565b7f4576656e74206973206e6f742061637469766500000000000000000000000000600082015250565b6000612820601383611a17565b915061282b826127ea565b602082019050919050565b6000602082019050818103600083015261284f81612813565b9050919050565b7f496e76616c696420636865636b706f696e740000000000000000000000000000600082015250565b600061288c601283611a17565b915061289782612856565b602082019050919050565b600060208201905081810360008301526128bb8161287f565b9050919050565b7f416c726561647920636865636b656420696e206174207468697320636865636b60008201527f706f696e74000000000000000000000000000000000000000000000000000000602082015250565b600061291e602583611a17565b9150612929826128c2565b604082019050919050565b6000602082019050818103600083015261294d81612911565b9050919050565b600061295f8261190e565b915061296a8361190e565b9250828201905080821115612982576129816126d7565b5b92915050565b600060608201905061299d60008301866119e2565b6129aa6020830185611b2a565b6129b760408301846119e2565b94935050505056fea2646970667358221220552b47c5d9c2d9ae51919903663fca230c64dbd90458658e010c806afb5dac4164736f6c634300081c0033",
  "linkReferences": {},
  "deployedLinkReferences": {}
}